:0200000270008C
:10A00000807F0020E9D9070011DA070013DA070082
:10A0100015DA070017DA070019DA07000000000058
:10A020000000000000000000000000001BDA070034
:10A030001DDA0700000000001FDA070021DA070020
:10A0400023DA070023DA0700A1CC070023DA070090
:10A0500023DA070023DA070023DA070023DA0700F0
:10A0600023DA07009DD9070023DA070023DA070067
:10A0700023DA070023DA070023DA070023DA0700D0
:10A0800023DA070095A8070023DA070023DA070080
:10A0900055A9070023DA0700BDD6070023DA070019
:10A0A00023DA070023DA070023DA070023DA0700A0
:10A0B00023DA070023DA0700000000000000000098
:10A0C00023DA070023DA070023DA070023DA070080
:10A0D00023DA070023DA070023DA07000000000074
:10A0E0000000000000000000000000000000000070
:10A0F0000000000000000000000000000000000060
:10A10000000000000000000000000000000000004F
:10A11000000000000000000000000000000000003F
:10A4000010B5054C237833B9044B13B10448AFF3AE
:10A4100000800123237010BD742C00200000000078
:10A42000F8DA070008B5034B1BB103490348AFF343
:10A43000008008BD00000000782C0020F8DA07003A
:10A44000154B002B08BF134B9D46A3F5803A002106
:10A450008B460F461348144A121A00F063F80F4B4C
:10A46000002B00D098470E4B002B00D098470020BF
:10A47000002104000D000D48002802D00C48AFF365
:10A48000008000F02BF82000290002F0B3FE00F05D
:10A4900011F800BF00000800807F002000000000CD
:10A4A00000000000742C0020443800200000000050
:10A4B0000000000008B5074B044613B10021AFF3BC
:10A4C0000080054B1868836A03B19847204600F066
:10A4D00031F800BF0000000054DA070070B50D4EDF
:10A4E0000D4CA41BA4100025A54209D10B4E0C4C09
:10A4F00003F0A4FAA41BA4100025A54205D170BD49
:10A5000056F8253098470135EEE756F8253098473C
:10A510000135F2E76C2C00206C2C00206C2C002004
:10A52000702C002002440346934200D1704703F888
:10A53000011BF9E7FEE700BF1FB50021CDE90210BE
:10A5400001AA44F20100ADF8041000F003F805B0D0
:10A550005DF804FBBFF34F8F0549064BCA6802F450
:10A56000E0621343CB60BFF34F8F00BFFDE700BF36
:10A5700000ED00E00400FA0512F0030310B511D15C
:10A58000094C22604C1CE400A4B22244074C226017
:10A59000074A1370074A1370074A1080074A184683
:10A5A000118010BD0720FCE7982C0020942C00207F
:10A5B000902C0020A02C00209C2C00209E2C002001
:10A5C0002DE9F3472B4D2B888B4206460C46174648
:10A5D0004BD302A84FF0000800F8018D00F0DAFC20
:10A5E000254B264A18781178CBB2254909888B4229
:10A5F00038BF0133C0B238BF5FFA83F840452ED070
:10A6000092F800801378DBB2994286BF0133DBB247
:10A61000002313709DF8070000F0E0FC4FF6FF7375
:10A62000984524D0DFF860A0DAF800304FEAC80976
:10A6300003EB090243F83870A6B19CB1114B28888E
:10A640001B68224608FB0030314603F0EBF9DAF8CC
:10A6500000304B4400209C8002B0BDE8F0874FF6EC
:10A66000FF78D7E700209080F6E70920F4E7042080
:10A67000F2E700BF9C2C0020A02C0020902C002092
:10A680009E2C0020942C0020982C0020F8B5124C11
:10A69000124E2546227833789A421CD010492278EF
:10A6A000237809880F48DBB2994286BF0133DBB2B9
:10A6B00000232B700C4B07881B680C48D2B211B2D8
:10A6C00003EBC10C006853F83130BCF8041002FBF6
:10A6D00007009847DEE7F8BDA02C0020902C002052
:10A6E0009E2C00209C2C0020982C0020942C0020D4
:10A6F000494B4FF40032C3F8802003F1C04303F507
:10A700003C534FF48032C3F848230121C3F8082397
:10A710002F2259601046013800BF00BF00BF00BFA4
:10A7200000BF00BF00BF00BF00BF00BF00BF00BF31
:10A7300000BF00BF00BF00BF00BF00BF00BF00BF21
:10A7400000BF00BF00BF00BF00BF00BF00BF00BF11
:10A7500000BF00BF00BF00BF00BF00BF00BF00BF01
:10A7600000BF00BF00BF00BF00BF00BF00BF00BFF1
:10A7700000BF00BF00BF00BF00BF00BF00BF00BFE1
:10A7800000BF00BF00BF00BF00BF00BFC3D19960C2
:10A79000224900230B601046013800BF00BF00BFF4
:10A7A00000BF00BF00BF00BF00BF00BF00BF00BFB1
:10A7B00000BF00BF00BF00BF00BF00BF00BF00BFA1
:10A7C00000BF00BF00BF00BF00BF00BF00BF00BF91
:10A7D00000BF00BF00BF00BF00BF00BF00BF00BF81
:10A7E00000BF00BF00BF00BF00BF00BF00BF00BF71
:10A7F00000BF00BF00BF00BF00BF00BF00BF00BF61
:10A8000000BF00BF00BF00BF00BF00BF00BFC3D17B
:10A81000034A1370704700BF00E100E0B82C00202D
:10A82000A92C0020437882780133DBB29A4208BF1A
:10A83000002302789A421FBF0B704378406803EBF5
:10A84000430314BF00EBC30000207047EFF3058300
:10A85000C3F30803BBB1103B5AB2002AABBF02F1ED
:10A86000604303F00F0303F56143094AACBF93F85B
:10A870000033D35C5B09DBB2022B06D0062B0CBF86
:10A88000012002207047022070470020704700BF5F
:10A8900014ED00E02DE9F8432649274B0025C1F8C7
:10A8A0004051C1F84451C1F84851C1F84C51C1F868
:10A8B0000051C1F804511B68002B34D0D1F8044575
:10A8C0001E49DFF88C800968641A24F07F442F4603
:10A8D0001A68A24212D8A41A15441A7CDE6962B121
:10A8E000D8F800901F74D3E90521B9F1000F1ED0EC
:10A8F0001046C84708B1FFF71FFEB6B9104B114A02
:10A90000197813788B4205D10133DBB2022B08BFD3
:10A910000023137012780C4B43F822500B4B4FF46A
:10A920008012C3F80021BDE8F8833346D0E708461B
:10A930009047E2E700100140C02C0020B82C002016
:10A94000B42C0020B52C0020AC2C002000E100E04D
:10A95000A42C00202DE9F04F9049914A91480B68B2
:10A96000007885B002931378984200F01481013387
:10A97000DBB2022B08BF0023137012788A4B53F806
:10A980002200029B034423F07F430B6001230093CA
:10A99000864BD1F800C01B680393854B93F800B039
:10A9A000844B1B680193844B002193F80080039B28
:10A9B0005C468E46013CE4B2FF2C40F00581BEF1BE
:10A9C000000F05D07C4A82F80080744AC2F800C0AB
:10A9D000764D01B12B60009A2B68002A40F04B8124
:10A9E000039AD31A18BF012300930021724BD5F8A4
:10A9F00000A01B780293694B00271E6853460BF199
:10AA0000FF325FFA82FBBBF1FF0F40F03981674AEA
:10AA100007B1136013689A4503D1009A002A00F029
:10AA2000B480002B00F0A8811A68644B644DD3F801
:10AA300004452878A11B21F07F41033100284BD128
:10AA40004FF48030C3F84403C3F804035D484FF467
:10AA50000037C0F88071076001271F602F20013880
:10AA600000BF00BF00BF00BF00BF00BF00BF00BFEE
:10AA700000BF00BF00BF00BF00BF00BF00BF00BFDE
:10AA800000BF00BF00BF00BF00BF00BF00BF00BFCE
:10AA900000BF00BF00BF00BF00BF00BF00BF00BFBE
:10AAA00000BF00BF00BF00BF00BF00BF00BF00BFAE
:10AAB00000BF00BF00BF00BF00BF00BF00BF00BF9E
:10AAC00000BF00BF00BF00BF00BF00BF00BF00BF8E
:10AAD00000BF00BFC3D12F708A422CBFB6187618B2
:10AAE00026F07F46C3F84065D3F80425121B22F0F8
:10AAF0007F42361B033226F07F46B24245D9D3F857
:10AB00000425C3F840252F20013800BF00BF00BF37
:10AB100000BF00BF00BF00BF00BF00BF00BF00BF3D
:10AB200000BF00BF00BF00BF00BF00BF00BF00BF2D
:10AB300000BF00BF00BF00BF00BF00BF00BF00BF1D
:10AB400000BF00BF00BF00BF00BF00BF00BF00BF0D
:10AB500000BF00BF00BF00BF00BF00BF00BF00BFFD
:10AB600000BF00BF00BF00BF00BF00BF00BF00BFED
:10AB700000BF00BF00BF00BF00BF00BF00BFC3D108
:10AB8000104B4FF40032C3F800210B4B00221A7017
:10AB900005B0BDE8F08F00200090F9E6B82C002049
:10ABA000B42C0020B52C0020AC2C0020C02C0020A0
:10ABB000BC2C0020C42C0020A82C00200010014038
:10ABC000A92C002000E100E022B2019D019E05EBCE
:10ABD000C20516F832206E7896423FF4EBAE6E68EE
:10ABE00002EB420906EBC90A0132AE78D2B29642B4
:10ABF00008BF00226E6816F83960022E09D0032EB5
:10AC0000E9D1002BE7D04FF000011974DB69012175
:10AC1000F7E7DAF804901E469A46BAF1000FDAD048
:10AC2000D14500F0AC805646DAF81CA0F5E70121CA
:10AC3000B2E01C68844204D902B12B60201A18606B
:10AC4000D4E6D3F80CC01F60001B2644DC69BCF1BD
:10AC5000000F07D0029AD961324422F07F42C3E943
:10AC6000012C1946009A2346002BE2D1002A3FF41A
:10AC7000BDAE2B60BAE60022114616461746F3E732
:10AC8000019A02EBCB0059BB90F801800278424553
:10AC90003FF4B5AE02EB420E90F80290D0F804C03B
:10ACA0000132D2B29145027004BF002202701CF83A
:10ACB0003E20012A0CEBCE05E8D16A6892F810C05C
:10ACC000BCF1000FE2D1AC685460EC6894602C6970
:10ACD000D460029C6D69956124B1C2F804C001E0A2
:10ACE0000A46C9695568344CD2F808E0A5EB060C51
:10ACF0002CF07F4CA44516D80CEB0E0515600024F3
:10AD0000C2E901444FF0010414740024D46143B13A
:10AD1000D2F800C01D68AC452BD8A5EB0C051D6012
:10AD2000D361012723E0751B25F07F45754502D2CD
:10AD3000AEEB0505E2E700241460E0E7ACEB0E0C97
:10AD4000D5F81CE0A846BEF1000F0AD07546D5F82C
:10AD500000E0E645F2D3AEEB0C0EC5F800E0AE46DF
:10AD60004546C2F800C0C2F81CE0EA611A46134624
:10AD700089E798461D46EAE7FFF7BAFC05E7B145C3
:10AD80000AD1DB69002B7FF452AF0C4901278F6099
:10AD90009C463946BE46B846D9F800A0D9F81C9062
:10ADA000C6F81C90B9F1000F3FF415AFD9F8006058
:10ADB0005644C9F800600EE7FEFF7F000010014016
:10ADC0002DE9F84312F003050746884699461446D4
:10ADD00002D11D4E12B93260072033E0FFF788FC24
:10ADE0001A4A1B4BC2F8009003221A70346004F117
:10ADF000180208EB4806F60011466260257065707F
:10AE000084F8028008348C423244F6D1114A124B45
:10AE10001560124A1570124AC02115704FF4801245
:10AE2000C3F8802183F814131A6002F18042A2F55E
:10AE30006F220020C2F8087583F81113094BD2F86D
:10AE400004251A60BDE8F883C42C0020A42C00203F
:10AE5000BC2C0020C02C002000E100E0B42C00201D
:10AE6000B52C0020B82C0020074B1B684BB132B129
:10AE700028B10368187C20B959745A6170470720BB
:10AE800070470820704700BFC42C00202DE9F34113
:10AE90001B4B1C6805460E46174674B368B304295D
:10AEA00029D943694BB3437C012B0CBF88464FF033
:10AEB0000008FFF7CBFC04EBC0040DF107012046AE
:10AEC000FFF7B0FCA8B1012303700E4B4560D3F827
:10AED0000435C0E902369DF80730C0E90487637085
:10AEE000094B4FF48012C3F80021002002B0BDE8E6
:10AEF000F0810420FAE70720F8E70820F6E700BF12
:10AF0000C42C00200010014000E100E073B5124B9A
:10AF10001D680646F5B1E8B14369DBB1002404744D
:10AF2000FFF794FC05EBC0050DF107012846FFF77C
:10AF300079FC68B1022303709DF8073046606B709E
:10AF4000064B4FF48012C3F80021204602B070BDBA
:10AF50000420FBE70820F9E7C42C002000E100E012
:10AF6000082910B5044602D00020FFF7E5FAD4E91D
:10AF70000030BDE81040184707B5054ACDE900018B
:10AF800008216846FFF71CFB03B05DF804FB00BF17
:10AF900061AF070070B5EFF3108672B60C4A946883
:10AFA00001239CB993600B4B0B4DD3F880102940C3
:10AFB0001160C3F88050D3F8841051604FF0FF3215
:10AFC000C3F88420047006B962B670BD0370FAE756
:10AFD0003838002000E100E0FC06FFBC10B5084B4B
:10AFE0009A685AB150B9EFF3108272B605491C68DD
:10AFF0000C605C684C60986002B962B610BD00BF1E
:10B000003838002000E100E048DF704711DF70476A
:10B0100013DF7047064B1878012803D1012904BFBC
:10B020000221197012B11046FFF786BA704700BFAF
:10B03000D02C002010B5064CFFF7E6FF08B1FFF753
:10B040007BFAFFF723FB2378023B022BF4D810BDD9
:10B05000D02C002008B51C21084802F01BF808B1CC
:10B06000FFF76AFA00231C220549044802F002F89F
:10B0700018B1BDE80840FFF75FBA08BDC82C002032
:10B08000D42C002007B50368013303D1002003B09E
:10B090005DF804FB01A800F03DF9019B1A78012A34
:10B0A000F4D1588830B1996843F208030022186837
:10B0B00000F054F9019B5B881B1A58425841E6E79F
:10B0C00084B02DE9F34108AC84E80F009DF82040DE
:10B0D000BDF822800B9D01A8DDE9097600F01AF980
:10B0E00054B9364B0122FF21A3F802809D601A70EB
:10B0F0001971334B1A7012E0012C17D12F4BBA196A
:10B100002A449A60A5221A70FF221A710C9AA3F899
:10B110000280C3E903765D619A61294B1C70FFF7D9
:10B1200099FF02B0BDE8F04104B07047032C0FD185
:10B13000019A224B11781970518892689A60C3E97C
:10B140000376AA2259801A715D611D4B0122D1E755
:10B15000022C16D1019A194B1178A5290BD1002286
:10B160005A809A60FF221A70FF221A710022C3E9E6
:10B1700003225A61E9E719705188926859809A60F0
:10B18000F2E7052C08D100F0A9FD08B1FFF7D4F9CA
:10B190000B4B03221A70C4E7042C09D1074B002281
:10B1A0009A605A80FF221A70019A12791A71B6E7D2
:10B1B000062CB6D1024B0422ECE700BFD42C0020B1
:10B1C000D02C00201FB50023CDE90233074B01939B
:10B1D00001F01AFF30B906494FF4FE2301A84B6075
:10B1E00001F034FF05B05DF804FB00BF15B00700A7
:10B1F000C82C002010B500F01DFA044620B900F05C
:10B2000049FD0446FFF716FF204610BD10B5FFF7B5
:10B21000FDFE08B1FFF790F90D4A106800230124E4
:10B2200004FA03F1014203F1010318BFC2F88010D0
:10B23000202BF5D143F208042068FFF7E9FE08B19E
:10B24000FFF77AF92068BDE8104000F069B800BF48
:10B2500000E100E007B501A800F05CF8019B1A7856
:10B26000A52A07D01879A0F1AA035842584103B083
:10B270005DF804FB0120FAE710B500F0F0FB98B18F
:10B28000642001F02EFA00F05DFB08B1FFF754F9DD
:10B2900000F0E5FB08B1FFF74FF900F099FB044619
:10B2A00038B1FFF749F904E000F0B4FB0446002888
:10B2B000E6D1204610BD00B589B003AB14220021B1
:10B2C0001846FFF72FF902228DF80C200022009279
:10B2D0000FC8FFF7F5FEFFF7ADFE002009B05DF8DF
:10B2E00004FB13B5044601A800F014F8019B1A787A
:10B2F00022705A8862809A68A2601A792271DA688C
:10B30000E2601A6922615A6962619B69A36102B0B5
:10B3100010BD0000014B0360704700BF00F0070044
:10B32000F0B50346186880F308885868FF2464B2B3
:10B33000EFF30585002D01D1A646004725460646B8
:10B3400021273FBAF0B40024002500260027F0B4DE
:10B35000F92040B2004700BFF0BD00BF2AB11388FA
:10B360000144884204D1184670474FF6FF73F7E74F
:10B370005BBA10F8012B9BB25A40C2F3031353403F
:10B3800083EA03331BB25A0102F4FF5253409BB2CB
:10B39000E7E718DF704770470129F8B50D461446F6
:10B3A0001F4607D0032912D014B32046BDE8F84049
:10B3B000FFF7C2B80F4B1B78052BF5D10E4B1B685E
:10B3C000002BF1D03A46214604209847ECE7094E7D
:10B3D0003378022BE8D1094B5B689847064B3570F0
:10B3E0001E68002EE0D03A4621462846B047DBE7EB
:10B3F000F8BD00BFF82C0020F02C00201C2D0020F0
:10B4000000B5084B89B001221A7005238DF80C3065
:10B41000079B009303AB0FCBFFF752FE09B05DF81B
:10B4200004FB00BFF92C002000B589B003238DF880
:10B430000C300A4B1B88ADF80E30094B5A68049249
:10B440009A68DB680693079B0093059203AB0FCBCA
:10B45000FFF736FE002009B05DF804FB282D002020
:10B46000B42D002000B589B001238DF80C300B4BB2
:10B470001B88ADF80E3043F208031A68084B596870
:10B4800004919968DB6806930591009203AB0FCB9A
:10B49000FFF716FE002009B05DF804FB282D002000
:10B4A000B42D002000B589B003AB1422002118464A
:10B4B000FFF738F804228DF80C20002200920FC804
:10B4C000FFF7FEFD09B05DF804FB000008B50C4B6A
:10B4D0000C4818600C4B02221A7043F208031B68D8
:10B4E000C3F5F4215B42C3F30C03C91A490801F008
:10B4F000D1FD18B1BDE80840FFF71EB808BD00BF78
:10B50000D42D0020CC2D0020F82C002008B5084BAD
:10B5100008481860084B02221A70084B196801F09D
:10B52000B9FD18B1BDE80840FFF706B808BD00BF77
:10B53000D42D0020C42D0020F82C00202C2D00201C
:10B5400070B5144D1448E96888B001F0A3FD08B146
:10B55000FEF7F2FF1149EA6849680F48002301F03D
:10B5600089FD064698B903AC014614222046FEF731
:10B57000D9FF0B4B8DF80C601B88ADF80E30EB68D3
:10B580000693079B009394E80F00FFF799FD304660
:10B5900008B070BDB42D0020C42D0020CC2D00209B
:10B5A000282D002010B50B4B1B788BB90A48FFF7EC
:10B5B000ADFC08B1FEF7C0FF00224FF47011064841
:10B5C000FFF764FC044608B1FEF7B6FF204610BD45
:10B5D0000824FBE7F92C0020FC2C00207FB50C464A
:10B5E00003210546CDE900109608684602940396AB
:10B5F000FFF7CFFED8B1B4F5805F11D801236846BC
:10B60000CDE90035CDE90246FFF7C3FE78B9032343
:10B610006846CDE90035CDE90246FFF7BAFE06E0FF
:10B620001A46E11AE81AFFF7D9FF0028E6D004B05D
:10B6300070BD0000F0B585B004A81F4B40F80C3D6C
:10B640001E4B1F4D1F4F00241C701F4B2946CDE978
:10B6500002441C8001F0FAFC064618B13C703046EA
:10B6600005B0F0BD43F208031A686A6095E803006C
:10B67000164A82E803001B685842C3F5F421C0F360
:10B680000C00091A03EB510353603146104A11486C
:10B69000FFF7EAFB08B1FEF74FFF00224FF47011ED
:10B6A0000D48FFF7F3FB08B1FEF746FF0B4B0022F6
:10B6B0001A6001233B70D2E799B30700B02D002038
:10B6C000C42D0020F82C0020282D0020CC2D002097
:10B6D00001B4070058DA0700FC2C0020F42C0020ED
:10B6E000014B1860704700BFF02C002038B543684C
:10B6F000264C0FCB84E80F002078420701D5830742
:10B700003ED163689D073BD1A268910738D1E168BB
:10B710008D0735D113441E4D0B44B2F5A04F2B605D
:10B7200030D843F20802C4071268C2F5F42116D5D6
:10B730008B4227D8174B184A1A60184A5A60184A81
:10B740009A60184B1B78012B1ED1FFF72BFF044684
:10B7500018B9104B28681B689847204638BD5242DC
:10B76000C2F30C028A1AB3EB520F0BD8094B0E4AE4
:10B770001A600E4A5A6082074CBF0D4A0D4ADFE735
:10B780000624EAE70C24E8E70824E6E7B42D0020C5
:10B790002C2D00201C2D00200DB50700A5B407009E
:10B7A00065B40700F82C0020CDB4070097B307005C
:10B7B00029B4070041B50700F8B50646002829D08E
:10B7C00083689B0728D1164B1B78052B26D1154D76
:10B7D0004468154F2B683A68A4002344934204D967
:10B7E0004FF0FF332B600C20F8BDFFF7DBFE002885
:10B7F000FAD10E482B68B1680068224601F03AFC85
:10B800000028F1D12B681C443B682C609C4218BF77
:10B810000920E9E70E20E7E71020E5E70820E3E745
:10B82000F82C0020F42C00202C2D0020D42D0020FA
:10B8300070B50A4B1D6875B9094E3378042B0AD1CF
:10B84000084C0948217800F037F910B90523337006
:10B8500070BD2570FCE70820FAE700BFF42C00203B
:10B86000F82C0020B02D0020302D0020F8B5134B0F
:10B870001A78032A074603D0042A03D0082419E0C3
:10B8800004221A700E4B1B68002BF7D1FFF78AFEBB
:10B89000044678B90B4E7D683378AD005A19802A7A
:10B8A0000AD80948B9682A46184402F0BBF8337828
:10B8B0001D4435702046F8BD0924FBE7F82C002014
:10B8C000F42C0020B02D0020302D002038B50D4C78
:10B8D0002378052B14D10C4B0C4D1A682B689A4217
:10B8E0000ED106232370FFF75DFE40B9084B29688F
:10B8F0001B68586800F020F908B90723237038BD89
:10B900000820FCE7F82C0020F42C00202C2D00202F
:10B91000D42D002010B5084B1B78072B0AD10748FF
:10B92000FFF7F4FA08B1FEF707FE054BBDE810403B
:10B930009B681847082010BDF82C0020FC2C002024
:10B940001C2D002030B58DB005A8FFF7CAFC089A61
:10B95000002A3BD00B9C02F58053A3422AD943F224
:10B960000800A4F58051006882424FEA510309D8CB
:10B9700021F00100121A00F580512044FFF72EFE3D
:10B980000DB030BD03F580500125CDE90150CDE962
:10B99000030501A8FFF7FDFC0028F1D14FF480500A
:10B9A000CDE9020001A801950495FFF7F2FC0028FB
:10B9B000E6D1DDE70123CDE9013492084FF480534D
:10B9C00001A803930492FFF7E4FCD9E71046D7E7F8
:10B9D00000B58DB005A8FFF784FC0998A0B1089BBD
:10B9E000ABB943F208031B685942C3F5F422C1F313
:10B9F0000C01521A03EB520380080022039001A8A5
:10BA0000CDE90123FFF7C5FC0DB05DF804FB0B9AEF
:10BA10001344F1E700B58DB005A8FFF762FC099863
:10BA2000B8B1089BC3B943F208031B685942C3F578
:10BA3000F422C1F30C01521A03EB520380080321D4
:10BA40004FF4F422049001A8CDE901120393FFF70B
:10BA5000A0FC0DB05DF804FB0B9A1344EEE730B583
:10BA60008DB005A8FFF73DFC0898A0B10B9C00F530
:10BA70008053A34211D943F208031B68984218D897
:10BA8000A4F5805323F00105421B5B0805F58051A6
:10BA90006019FFF7A3FD0DB030BD800803224FF4FD
:10BAA0008053049001A8CDE901230394FFF771FCB2
:10BAB000F1E70E20EFE700000B2970B5044635D9F9
:10BAC0000389053300EB43030144CA1AD2B2012AA9
:10BAD0002CD98B422AD81946154801F0A3FF154BE3
:10BAE0001A884FF6FF718A4202D02188914207D10D
:10BAF0005B884FF6FF72934204D062889A4201D06D
:10BB00000B2014E0218900230A344FF6FE7043F223
:10BB10000C059942F4D934F8022B824204D02E88C5
:10BB2000B24203F10103F4D1002000E0092070BD0E
:10BB3000D82D00208010001008B50022FFF70EFC61
:10BB4000044A5178137843EA0123984214BF0B202A
:10BB5000002008BDD82D002073B500230DF102018F
:10BB600001A8ADF80230019300F008FDF8B9019C7E
:10BB700025785DB3174B93F83020032A28D00C2684
:10BB800006FB00F29958E9B998189D5093F83020B7
:10BB90000132D2B283F83020BDF802300E4A9B0841
:10BBA000013B0434436084600846FEF709FD019BB5
:10BBB00033B128B1184600F0FDFC08B1FEF7BCFC1B
:10BBC00002B070BD01300428DAD1F0E70720EEE7BB
:10BBD0000420ECE7E42D002021BC070011B1084649
:10BBE000FEF7AABC7047000010B50C230B4A434374
:10BBF000D418D15881B192F83010A0680139C9B277
:10BC000082F830100021D150C4E90111043800F04D
:10BC1000D1FC08B1FEF790FC002010BDE42D0020FF
:10BC2000F8B51B4E0C27354696F8303003B9F8BDF1
:10BC3000002407FB04F3EA5882B1013AE818042A09
:10BC400006D8DFE802F019050F031E00FFF7B4FD68
:10BC5000E0B2FFF7C9FF08B1FEF76EFC0134042C17
:10BC6000E7D1E1E72B449A685A60FFF73FFD0028CF
:10BC7000EED0FEF761FCEBE7FFF7F8FDFFF7D8FD2C
:10BC8000F5E7FFF723FEBDE8F840FFF743BE00BF2E
:10BC9000E42D002008B50E4B002283F8302003F17C
:10BCA00030011A60C3E901220C338B42F9D10948F3
:10BCB000FFF716FD00F0FAFB08B1FEF73DFC064861
:10BCC00000F0E0FB08B1FEF737FC002008BD00BF24
:10BCD000E42D0020DDBB070059BB070008B500209C
:10BCE000FFF782FF0120FFF77FFF0220FFF77CFFB5
:10BCF0000320FFF779FFBDE8084000F01FBC0000FB
:10BD0000064B074A00201870064B1A600222C3E94E
:10BD10000120C3E90300C3E905007047182E002085
:10BD20001C2E0020D43200200020704730B5F9B11D
:10BD3000124B5C6800220A60E4B1B0F5167F1BD894
:10BD4000D8681D680130013CD86018695C604FF408
:10BD5000177404FB00540C60012101FA00F4996986
:10BD6000013000F00100214318619961104630BD97
:10BD70000E20FCE70420FAE70C20F8E7D43200207C
:10BD8000F0B51C4B9A689AB359691E688C1A04F076
:10BD9000010425464FF4177707FB056C604512D167
:10BDA000012101FA05F09969414099610020294675
:10BDB0004FF0010E5E68D3F818C071440025164498
:10BDC00001EA0E0109E085F00105A942E4D1102045
:10BDD000EEE74AB1013A0C4601250EFA04F414EAE2
:10BDE0000C0FA6EB0207F4D00DB1C3E90172F0BD50
:10BDF0000420FCE7D4320020064A13691268013B94
:10BE00004FF4177103F0010301FB0323C3F8580239
:10BE100000207047D432002030B5C0B1B9B10E4B0C
:10BE2000DA68B2B1013ADA609A681D6801329A6044
:10BE30005A694FF4177404FB025404600132D4F8B9
:10BE40005802086002F001025A61002030BD0E2045
:10BE5000FCE70420FAE700BFD43200203FB40C49CD
:10BE6000086890B10B4B1C687CB10B4A1568CDE992
:10BE7000025000238DF804300B60136004AB13E90B
:10BE80000700234604B030BC184704B030BC7047EC
:10BE9000F8320020FC32002008330020DC2810B5E6
:10BEA00009D0DD2810D0C02816D1FFF7D7FF0E4BE0
:10BEB0000E4A1A6010BD0E4A0E4B19681368581CC2
:10BEC0001060C022CA54F2E7094A0A4B1968136885
:10BED000581C1060DB22F5E7064B054A1968136809
:10BEE0005C1C1460C854E2E7602C002029BF0700E6
:10BEF000F832002008330020C02802BF014B024A5C
:10BF00001A607047602C002029BF070008B5DB20AD
:10BF100000F0D0FB10B9024B024A1A6008BD00BF06
:10BF2000642C0020C5C00700C02810B409D0DB284D
:10BF30000BD0094B094A196813685C1C1460C8547B
:10BF400006E05DF8044BFFF789BF054B054A1A6010
:10BF50005DF8044B704700BF08330020F832002022
:10BF6000602C00209DBE070010B5064A064C1268E2
:10BF70002368D05C00F09EFB10B923680133236076
:10BF800010BD00BF0C3300200033002008B5C020D6
:10BF900000F090FB28B9034B1B6813B9024B034A0E
:10BFA0001A6008BD00330020642C002069BF070020
:10BFB0007FB51C4C1C4E1D4D226833689A4219D324
:10BFC0001B4B2B60FFF7E2FF002829D1194B012200
:10BFD0001A70194B1B681BB38DF80420174A12689E
:10BFE00002922268039204AA12E9070004B0BDE895
:10BFF00070401847114B22681B689A5CC02A03D016
:10C0000022689B5CDB2B05D10D4B2A689A4204BF4A
:10C010000C4B2B602B689847042801D01128CBD1FA
:10C0200004B070BD0033002004330020642C0020D5
:10C030008DBF0700F0320020FC3200200C330020BE
:10C0400069BF07000DBF07001FB50378032B044627
:10C0500005D1164B1B78022B01D1FFF7A9FF2378DE
:10C06000042B20D1124B1A6862B1124B1968124B83
:10C070001B68994206D2114B20791B6804B0BDE8B9
:10C08000104018470E4B1B686BB10292094A0221FF
:10C09000126803928DF8041004AA12E9070004B094
:10C0A000BDE81040184704B010BD00BFF0320020BA
:10C0B00008330020F8320020F4320020602C0020E9
:10C0C000FC32002010B50C4A0C4C12682368D35C7B
:10C0D000C02B03D0DB2B0CD0042009E0DC2000F0C7
:10C0E000E9FA28B92368064A01332360054B1A6030
:10C0F00010BDDD20F3E700BF0C330020003300202B
:10C1000069BF0700642C0020014B186000207047B5
:10C11000FC3200207FB50B4D2E7886B90A4B93E890
:10C12000070001AC84E807000623084A3146204690
:10C1300000F076FA08B901232B7004B070BD00201E
:10C14000FBE700BFF03200205CDA070049C00700BF
:10C15000024B00221A7000F0BFBA00BFF03200207C
:10C1600010B5C0B10D4B1A78012A04D0022A0CBFB9
:10C170000420082010BD0A4A00241460094A1160F6
:10C18000094A106002221A70084B094A1A60FFF728
:10C190000FFF2046EEE71020ECE700BFF032002052
:10C1A00000330020043300200C330020642C0020D6
:10C1B0008DBF0700054B064A1860064B1960064BF9
:10C1C00000201860054B1A60704700BF083300203C
:10C1D000F9BE0700F4320020F8320020602C002065
:10C1E000064B07481B68DB00DBB20022037004210A
:10C1F0005B4242708270C370FFF7B2BF38330020D9
:10C200001033002070B52D4C2D4E02462546237864
:10C21000012B14D002D3022B20D070BD002AFCD1F8
:10C220002848FEF773FE08B1FEF786F9264B1B6817
:10C23000002BF2D0254ABDE8704010781847012A3B
:10C24000EBD13168224B06311868FFF789FF08B13E
:10C25000FEF772F902232B700022D8E7022A19D0C8
:10C26000032A0ED0002AD8D11A4B16481A6044F679
:10C27000DF71FEF70BFE0028CFD0BDE87040FEF75F
:10C280005BB9154A1368013303F0070313600023F9
:10C290002370E1E70F4A1368052B0AD001331360BE
:10C2A000074B19680A4B06311868BDE87040FFF764
:10C2B00057BF064B01221A70E9E700BF5C3300202C
:10C2C00050330020143300204C330020543300201E
:10C2D00064330020583300203C330020F0B585B093
:10C2E00004AB03E907009DF80400032878D8DFE8D1
:10C2F00000F00802A7AA012005B0BDE8F040FFF752
:10C3000081BF039E564C032E40F28680029D6B78BF
:10C3100013F00F0269D00E2A7ED1042E59D02A784C
:10C32000500656D5110654D51A44AB781A44EB780A
:10C330001A4412F0FF024CD1B71E39462846FFF7C7
:10C340000DF8EB195A78EB5D43EA0223984240D18D
:10C3500044492A780B6802F00702D8B282422BD1F6
:10C36000013303F007030B60FFF73AFF3E4B012256
:10C3700030461A70FFF740FD08B1FEF7DDF8384986
:10C380004FF41670FFF7D2FC00285ED0042802D0CC
:10C390000020FEF7D1F835480521FFF70BFF08B163
:10C3A000FEF7CAF8324B1B68002B56D04FF0000046
:10C3B00005B0BDE8F04018474FF416712068FFF74C
:10C3C000F9FE08B1FEF7B8F805B0BDE8F040FFF798
:10C3D00007BF20684FF41671FFF7ECFE00283CD031
:10C3E00005B0BDE8F040FEF7A7B82978AA780B445D
:10C3F0001344EA78134413F0FF030DD11D4A126869
:10C400000132C1F3C20102F00702914204D11A4A7B
:10C4100003201370FFF7F6FE25681DB14FF4167167
:10C420002846D9E70E494FF41670FFF77FFC80B11C
:10C43000042802D02846FEF77FF80C480521CBE7F8
:10C4400005210A48C8E70320CAE720684FF416719F
:10C45000A3E720684FF41671BEE705B0F0BD00BF3A
:10C460006033002038330020343300204033002074
:10C47000483300203C330020543300200220FFF7D3
:10C48000C1BE0000074B10B5044618600648FFF710
:10C490003BFE08B1FEF750F8002C0CBF0E20002028
:10C4A00010BD00BF48330020DDC20700184A1948FC
:10C4B000002310B51360184A1360184A1360184A15
:10C4C0001370184A1370184B184A01211960184B41
:10C4D0001960184B1970FEF7C7FC08B1032010BD96
:10C4E000FFF70EFC0028FAD1FFF714FE0028F6D162
:10C4F000114C4FF416702146FFF718FC0028EDD1BF
:10C5000020684FF41671BDE81040FFF753BE00BF1E
:10C510006433002068DA07005033002058330020CD
:10C52000343300205C330020383300207DC4070002
:10C530003C33002054330020603300200C4A08B5FF
:10C54000002313600B4A1360FFF7EEFB08B1FDF701
:10C55000F3FFFFF7FDFD08B1FDF7EEFF0648FEF71C
:10C56000D5FC042802D10020FDF7E6FF002008BD1D
:10C570004C330020483300201433002037B50D46DB
:10C58000044698B191B10A4B19780022019259B131
:10C5900001A91A70FFF740FC019B063B2B80236822
:10C5A0000433236003B030BD0420FBE70E20F9E71D
:10C5B000343300200438FFF7E3BB000013B50478E0
:10C5C000012C12D104238DF80030436811481B78E8
:10C5D0008DF80430214600F09FFA0F4B1C700F4B72
:10C5E0001B686846984702B010BD022C08D1C3688A
:10C5F00008488DF800400121019300F08DFAEEE724
:10C60000002CF0D102A8032300F8083D034B1B685F
:10C61000E8E700BF6C3300206D3300206833002052
:10C62000F0B51F4D064617469C460FCD89B06C46A7
:10C630000FC495E80F0084E80F00B36806933379C0
:10C640008DF81CC01A1C18BF01228DF814207279B5
:10C65000002A14BF0E2200228DF81520F2780292D3
:10C66000B278039232780192727800920D4A176084
:10C670000D4A0021022B11700FD00C49684600F0C2
:10C68000F7F840B99DF81D300BB900F0F5FA01211B
:10C69000074800F041FA09B0F0BD0620FBE700BFF3
:10C6A0006CDA0700683300206D330020BDC5070039
:10C6B0006C33002008B5074B01211870184600F0B4
:10C6C000C1F9112804D0002814BF0320002008BDA0
:10C6D0000420FCE76E33002008B500F05DF900206F
:10C6E00008BD82B00190019B0BB902B07047019B5D
:10C6F000013B019340F2E730013800BF00BF00BFAB
:10C7000000BF00BF00BF00BF00BF00BF00BF00BF31
:10C7100000BF00BF00BF00BF00BF00BF00BF00BF21
:10C7200000BF00BF00BF00BF00BF00BF00BF00BF11
:10C7300000BF00BF00BF00BF00BF00BF00BF00BF01
:10C7400000BF00BF00BF00BF00BF00BF00BF00BFF1
:10C7500000BF00BF00BF00BF00BF00BF00BF00BFE1
:10C7600000BF00BF00BF00BF00BF00BF00BFC3D1FC
:10C77000B9E700000028C3B2A8BF00F160424FEA49
:10C78000501010B5BABF0D4A03F00F0402F5614214
:10C790004FEA41114FEA8000C9B200F16040B4BFD6
:10C7A000115582F8001300F5614003F01F020123C8
:10C7B0009340C0F88031036010BD00BF14ED00E06D
:10C7C000074B00221A60074A938A91689BB2C95CA2
:10C7D000938A01339BB29382034BC3F81C157047B5
:10C7E0001C21004070330020002000401FB50123B1
:10C7F0008DF80030054B8DF8080001916846D3E9AB
:10C800000012904705B05DF804FB00BF70330020B4
:10C810001FB5084B8DF808009968019100228DF82A
:10C8200000209A756846D3E90012904705B05DF87C
:10C8300004FB00BF703300200A4B0B49D87D0B4A24
:10C8400018B90860D2F81835704700200860597E82
:10C85000D2F81805DA6850545A7E0132D2B25A76AC
:10C86000704700BF703300200821004000200040C6
:10C870002DE9F041404C94F81BE08846BEF1000FD2
:10C8800077D13E4B002808BF184601230268457F38
:10C89000257793404FF0A0420327C2F8083503687C
:10C8A00003F5E07342F82370436803F5E07342F840
:10C8B00023E0334B8669C3F82465467D90F814C0A5
:10C8C00046EA0C06C3F86C65D0E90016C3F80C15EF
:10C8D000C3F81465067D002D3AD0012E13D181686E
:10C8E00001F5E07C42F82CE0C1688E40C2F8086592
:10C8F000C66806F5E07642F82670D0E90226C3F84D
:10C900000865C3F810250369C4F804802360B8F1F2
:10C91000000F0FD0017F1B4A15B31B480023036093
:10C92000036143611360164B184AC3F804230220C5
:10C93000FFF720FF227F124BCAB10822C3F800255F
:10C9400000200123E0822076E376A076BDE8F08126
:10C95000012ED8D1816801F5E07C42F82C50C3E764
:10C960000B4B1D6015600B4AC3F8E821DFE704227A
:10C97000E4E70820EAE700BF703300208CDA070004
:10C98000002000404421004010210040100302001C
:10C990001C2100408000020070B5254A254B117F04
:10C9A00000293FD00020C3F8000553684BB1214B4C
:10C9B00000293AD02048C3F80803204B0420C3F8CC
:10C9C00080001C4BD3F80C55D3F81445D3F8081548
:10C9D000D3F810054FF0FF36C3F80C6504F5E0748A
:10C9E000C3F8146505F5E075C3F80865C3F810656C
:10C9F0004FF0A043022643F8256043F82460441C0E
:10CA00001CBF00F5E07043F820604B1C1FBF4FF0C7
:10CA1000A04301F5E071022043F821000023D37602
:10CA2000536070BDC3F80015BFE70548C3E700BFFA
:10CA300070330020002000401003020000E100E0FD
:10CA40008402020070B52D4C237F23B1020C120426
:10CA5000B2F1005F4ED1A57D002D4DD1A175A06032
:10CA6000A5822749EBB1274B274A1D601560274D4A
:10CA7000A67DC5F844050120C5F8486508606168D1
:10CA800009B1002070BD1868116818B90029FAD0E2
:10CA90000F2003E0002914BF0F2000200023A375FE
:10CAA000F0E71B48036001230B60FFF789FE636812
:10CAB000002BE6D1A27DA38A9A420CD8A38A9BB20E
:10CAC000B3F5807FE4D00368002BFCD0114B01222A
:10CAD0001A600020E2E7036823B9A38A9BB2B3F58A
:10CAE000807FF8D1A38A9BB2B3F5807FE3D0FFF7B4
:10CAF00067FEDFE71020C5E71120C3E77033002091
:10CB00000820004020210040582100400020004023
:10CB10001C2100400C2000402DE9F0414F4D2B7F9F
:10CB20002BB1020C1204B2F1005F40F087806C68F8
:10CB30002CB14B4A8BB14FF40476C2F80863EA7DFE
:10CB40008AB12A7E002A32D02CB1454A43B14FF433
:10CB50000473C2F80433112027E04FF40176ECE7A8
:10CB60004FF40173F5E7E975E8606A762A761BB33E
:10CB70003C4B1A605A63C3F82404C3F82814A3F585
:10CB8000887301221A606B68002B3FD1354A364901
:10CB9000364C16680868236816B908B9002BF8D017
:10CBA0000022EA75002B2DD00320BDE8F08128611A
:10CBB0002976002B44D10123AA7E3AB933B92B4AF6
:10CBC000136042F81C3C264B01221A606A68002A56
:10CBD00030D1254E254FDFF89C8032603B68D8F875
:10CBE00000203468C2B90CB9002BF7D00022EA75D6
:10CBF000002BD9D144B9AA7E0123CAB1184A1360C7
:10CC00000020D2E70028D0D00F20CEE7144B4FF4FD
:10CC10000472C3F80423F3E7002BE7D1002CE5D11D
:10CC2000FFF70AFE6B7EEA7D9A42D7D82346DDE7FE
:10CC30000F4AE4E70A4B4FF40172EAE71020B4E729
:10CC4000084B1A605A63C3F82404C3F82814D3F8B5
:10CC5000F02042F02002C3F8F02094E77033002067
:10CC600000200040102100404421004024210040C9
:10CC70000420004008210040074B1A7F52B99A7ED9
:10CC800042B906490A6041F81C2CA1F592710122B3
:10CC90000A609A76704700BF70330020242100405C
:10CCA000F0B56A4C6A4D217F85B0002955D069499D
:10CCB0000A68002A33D0002302220B608DF800207E
:10CCC000654AD2F88014C2F880140391D2F83C254A
:10CCD0008DF80820E268E37523760192D4E9001309
:10CCE000684698472B685BB100232B60E27D3AB120
:10CCF000E375594BE168D3F83C05C0B2FFF776FD08
:10CD0000564B1A684AB100221A60A37D2BB1524BD0
:10CD1000D3F84C05C0B2FFF77BFD05B0F0BD504B1A
:10CD200019680029DED04C4E1A60D6F83C35E07DFB
:10CD3000DBB29842D6D1237EE16863B1D6F80072A7
:10CD400027F02007C6F80072E3752369E3602276B6
:10CD5000FFF74CFDC6E7E375FAE73F4BD3F8042332
:10CD600012F4007F18463FD03A4A1668002E3BD096
:10CD700011604FF40172C3F80823A37E13B9394B35
:10CD800001221A600223344A8DF80030D2F8803430
:10CD9000C2F880340393E37D8DF80830E368019393
:10CDA0000023E37523766846D4E9001398472E4B99
:10CDB0001A682AB1A28AA07D90423FD9FFF700FDF0
:10CDC0002B68002BA9D000232B60A37E13B1224B2C
:10CDD00001221A60E37D002B9FD00023607EE16872
:10CDE000E375FFF703FD98E7D0F804335B07DED562
:10CDF0001E4B1B68002BDAD0FFF71EFD637EE27D21
:10CE00009A42D4D1237E53B1E3752369E168E3608C
:10CE10000023607E23766376FFF7E8FCC7E7A37EF6
:10CE200013B9104B01221A600B4B4FF40172C3F877
:10CE300008230023E375607EE168EDE700221A60B5
:10CE40000028BDD0FFF7E4FCBAE700BF7033002034
:10CE500044210040242100400020004020210040C7
:10CE600010210040042000401C2100400821004007
:10CE700029DF704728DF704737B50B460C465A68E4
:10CE800014F80C1BDD680092044A5B6952F82550C7
:10CE900002462046A84703B030BD00BF90330020B3
:10CEA00038B5184C2378182202FB03431A795D69C0
:10CEB000012A03D0032A18D00F2015E0124A9969DD
:10CEC00010689A68DB680003121AB2F5805F1D448F
:10CED000014438BF9208284428BF4FF48062FFF70E
:10CEE000C7FF08B90123A37038BD4FF080531869FC
:10CEF000054B80B2B5FBF0F518682844FFF7BAFF80
:10CF0000EFE700BF9C3300209434002070B5134D30
:10CF10006C780A2C1FD02E783444E4B2092C84BFDC
:10CF20000A3CE4B2182606FB0454A261207103C92E
:10CF3000A360049BE360AB7804F1100282E8030075
:10CF400023B100206B7801336B7070BDFFF7A8FF31
:10CF50001128F7D1F5E70420F7E700BF9C33002044
:10CF600070B527498B780C462BB1002602288E70AD
:10CF700002D003283AD070BD0D78224A182101FB57
:10CF80000541136889680133B1EB033F13601BD877
:10CF900063781660013B63706B1CDBB21826092BAB
:10CFA00006FB054188BFA5F1090304310020237069
:10CFB000FFF762FF06FB054300220321C3E90412C9
:10CFC0001A719A609A61DA606378002BD3D0A378E3
:10CFD000002BD0D1FFF764FF0028CCD01128CAD095
:10CFE0002178182303FB0141043105E00B78182256
:10CFF00002FB031104310D20BDE87040FFF73CBF78
:10D000009C330020943400200C4A002313600C4A07
:10D0100003201380937002F1F00113719360936108
:10D02000D360C2E9040318329142F6D1054A136075
:10D03000054A0020C2E90033936070479434002011
:10D040009C3300209034002090330020074A13685E
:10D05000032B1FBF0B60591C1160054A1DBF0168DF
:10D0600042F8231000200420704700BF90340020B5
:10D070009033002013B5CC180C43A40708D10093BB
:10D0800013460A4601460120FFF740FF02B010BDDB
:10D090001020FBE707B500220B4600920146032053
:10D0A000FFF734FF03B05DF804FB13DF704718DFB0
:10D0B0007047000000B58BB00023CDE90233049324
:10D0C000022301931B4B0246186800902AB101A865
:10D0D000FFF7EDFF08B1FDF72FFA4FF4F420FFF74B
:10D0E000E4FF08B1FDF728FA134B144948226846BB
:10D0F00000F0A2FA08B1FDF71FFA012105AA0846BF
:10D1000000F0EEFA08B1FDF717FA9DF8203005A8F7
:10D1100043F001038DF8203000F0FAFA08B1FDF772
:10D120000BFA074800F0C0FA08B1FDF705FA0BB09A
:10D130005DF804FBACDA070041D70700B0370020E8
:10D1400045D10700FFF70CBF08B5054A1421082098
:10D15000FDF712FA18B1BDE80840FDF7EDB908BDBA
:10D1600098340020F0B51D491D4C0B682078013320
:10D1700058BB1C4D1C4E2A680B6056F82260B34207
:10D1800022DB4FF0A0430860D3F80415174FCE43BD
:10D1900006F00076C3F8086501F00071144EC3F87C
:10D1A0000C15316857F822700131B94231600BDB40
:10D1B0000132062A30602A6006DD4FF00072C3F8A3
:10D1C0000C25012323702860F0BD42F20F729342B8
:10D1D000C9BF00230B600B602370F5E7FC3700200C
:10D1E00000380020F8370020CCDA0700B0DA07005A
:10D1F0000438002070B54FF08043D3F81C45B12CA3
:10D2000004BF0022C3F81C254FF0A0434FF00302D7
:10D21000C3F81C27C3F82027C3F82427C3F82827FE
:10D22000C3F82C27C3F83027384AC3F80825384BF1
:10D230001B680CBF01260026B3F5F42F02D0002096
:10D24000FDF77AF94FF080531B69B3F5805F02D088
:10D250000020FDF771F92F4B2F4A05210020FDF723
:10D26000AFFD08B1FDF768F94FF0A0452B4BC5F8AD
:10D270006C37FDF7A7FF4FF00073C5F80C3500F0D1
:10D280007FFA00234FF47A722549012000F09AFAC0
:10D29000FDF7E0FFB13C18BF0124D8B1FDF7ECFF6A
:10D2A00008B1FDF749F92046FFF704FFFFF74CFFEF
:10D2B000FEF701F808B1FDF73FF94FF0A043D3F8AE
:10D2C00010351B0100D55EB1FDF794FF78B1FDF775
:10D2D00033F90CE02046FFF7EDFEFFF735FFECE7F2
:10D2E00043F208031868FDF7CDFE0028ECD043F2A6
:10D2F00008042068FDF7C6FE28B1FDF7ABFF10B9A2
:10D300002068FDF783FF002070BD00BF00190002F8
:10D310001410001079AF0700E83500200C0003005E
:10D3200065D10700094B1B78062B0CD1084B1B68F5
:10D330001A0708D1074B186800F0F000A0F130037D
:10D340005842584170470020704700BFE00F00F07E
:10D35000E40F00F0E80F00F00C4B1B78062B10D107
:10D360000B4B1B681A070CD10A4B186800F0F0032E
:10D37000302B08D000F0E000A0F1400358425841A3
:10D380007047002070470120704700BFE00F00F099
:10D39000E40F00F0E80F00F008B5FFF7C3FF10B18D
:10D3A000674B684A1A60FFF7D7FF28B1664B674A98
:10D3B0001B68C3F342331360FFF7B4FF20B1644A24
:10D3C000D36823F08073D360FFF7C6FF40B14FF0FE
:10D3D00080430022C3F80C21C3F81021C3F838257C
:10D3E000FFF7A0FF10B15B4B03221A60FFF79AFF13
:10D3F00040B1594B05221A6001229A6700229A60B7
:10D400003F225A60554B1B78062B50D1544B1B685A
:10D410001B074CD1534B1B6803F0F003502B46D134
:10D420004FF08052504BD2F80414C3F82015D2F8B4
:10D430000814C3F82415D2F80C14C3F82815D2F830
:10D440001014C3F82C15D2F81414C3F83015D2F800
:10D450001814C3F83415D2F81C14C3F84015D2F8C8
:10D460002014C3F84415D2F82414C3F84815D2F890
:10D470002814C3F84C15D2F82C14C3F85015D2F860
:10D480003014C3F85415D2F83414C3F86015D2F828
:10D490003814C3F86415D2F83C14C3F86815D2F8F0
:10D4A0004014C3F86C15D2F84424C3F870252F4AF1
:10D4B000D2F8883043F47003C2F88830BFF34F8F3E
:10D4C000BFF36F8F4FF01023D3F80022002A03DB45
:10D4D000D3F80432002B2FDA254B0122C3F80425A0
:10D4E000D3F80024002AFBD04FF010221521C2F8F7
:10D4F0000012D3F80024002AFBD04FF0102315228D
:10D50000C3F804221A4B1A46D3F800140029FBD0A2
:10D510000021C3F80415D2F80034002BFBD0BFF370
:10D520004F8F1249134BCA6802F4E0621343CB6079
:10D53000BFF34F8F00BFFDE70F4B104A1A6008BDC5
:10D5400074C007400DF0ADBA440200103C05004025
:10D55000F0ED00E0A005004010560040E00F00F0A4
:10D56000E40F00F0E80F00F000C0004000ED00E024
:10D5700000E001400400FA05682C00200090D00370
:10D5800052DF704710DF704760DF704761DF704720
:10D5900008B5FCF7DFFF08BD2DE9F743214B1B78E9
:10D5A00003F0FF08ABB1204D204E2B683268B3FA70
:10D5B00083F77F09A2B963B144461EE0336801983E
:10D5C000984718E0444616E02A681846904726E037
:10D5D00034B103B0BDE8F083002CFAD144462746AD
:10D5E00001A8FFF7CDFF05280446EBD00028E5D0C1
:10D5F000FCF7A2FF0024002FEAD10D4FDFF8349092
:10D600003B88ADF80430D9F8003001A91846FFF77F
:10D61000BDFF0528E0D00028D6D0FCF78DFF002CF8
:10D62000EED1DCE7143800200C3800201838002038
:10D63000083800201C38002010B509B38C071FD112
:10D64000124C216012490A80124A13491360FFF7F5
:10D6500099FF80B9114B01221A70114A92F81633C2
:10D66000C3F34113012B0DD90E4B996821B11A68F0
:10D6700042F480021A6010BD4FF480031360FAE791
:10D680000720F8E742F20200F5E700BF1C3800204F
:10D69000083800201038002091D5070014380020E9
:10D6A00000E100E03838002018B1034B186000207A
:10D6B00070470E20704700BF1838002008B5074B90
:10D6C0001B682BB1984738B1BDE80840FCF734BF60
:10D6D000BDE80840FFF760BF08BD00BF103800205C
:10D6E00070B5144605460E46142200212046FCF76C
:10D6F00019FF227B26720021012361F3000223809F
:10D7000021612273657205B1A372002070BD000013
:10D7100007B5054B019302A9019B41F8083DFFF7AE
:10D7200033FF03B05DF804FB002C002008B511B1F5
:10D730000020FCF701FFBDE80840FFF72DBF000007
:10D740000021024A0846FCF73BBF00BF2DD7070067
:10D75000B0F5A07F0AD1064B1B7813B9054B022206
:10D760001A70054B054A1B6810681847704700BFC0
:10D7700020380020213800202438002028380020BC
:10D7800008B5054A0548002100F06AF810B9044BB5
:10D7900001221A7008BD00BF51D70700E8DA070060
:10D7A0002138002010B5054C2378032B04D1044800
:10D7B00000F0C4F802232370002010BD213800209F
:10D7C000E8DA07002DE9F7430546904699460F46EB
:10D7D000002935D001282ED0002833D14FF480768F
:10D7E0001A4C237883B3032B04D1FFF7DBFF08B176
:10D7F000FCF7A2FE2378022B02D1154800F0A2F814
:10D80000144B13481D70144B1F60144BC3F8009049
:10D810000123009342463346002100F0A8F8237804
:10D820000B48022B09D100F085F803232370002058
:10D8300003B0BDE8F0830646D2E700F06DF8F4E7E8
:10D840000E20F5E70720F3E70820F1E72138002054
:10D85000E8DA07002038002024380020283800208B
:10D86000F8B52B4E05790C2303FB056307461B7A9D
:10D870000C46002B47D1002A47D011B9254C04EBA8
:10D88000C5040C236B43F118F250002263684B600F
:10D89000944679793868D3B2994202F101022CD8C2
:10D8A000E17840F30730FEF765FF39686378D1F817
:10D8B000042503F0030322F003021343C1F80435E7
:10D8C0003968A378D1F8082503F0030322F0030296
:10D8D0001343C1F8083539682378D1F8102503F0CF
:10D8E0000F0322F00F021343C1F810350C2303FB82
:10D8F000056501232B720020F8BD9B0003F5A07382
:10D9000040F803C0C5E70820F6E70720F4E700BFAA
:10D910002C380020F0DA0700036801221A6003792E
:10D92000034A0C2101FB032302221A72704700BF35
:10D930002C380020036801221A6070470368012216
:10D940005A60704703680122DA60704730B54FF4BF
:10D9500080348C4005683BB1C5F80443036801F589
:10D96000A87143F8212030BDC5F80843F6E7F0B4AC
:10D9700007689DF810C0D7F8004240F201158D40AD
:10D9800024EA0504C7F800420568D5F8004223439D
:10D99000C5F80032F0BC6346FFF7D8BF2DE9F0416F
:10D9A0000E4C0F4F0F4E00254FF48038236804F5BE
:10D9B000E04080B253B1D7F8043308FA05F21A42B6
:10D9C00004D000232360D6E9003198470135042DA7
:10D9D00004F10404EAD1BDE8F08100BF40910040A9
:10D9E000009000402C3800200649074A074B9B1A3C
:10D9F00003DD043BC858D050FBDCFFF7CDFCFCF73F
:10DA00001FFD000004DB0700002C0020742C002008
:10DA1000FEE7FEE7FEE7FEE7FEE7FEE7FEE7FEE7DE
:10DA2000FEE7FEE710B5431E0A44914200D110BD47
:10DA300011F8014B03F8014FF7E70000F8B500BFFC
:10DA4000F8BC08BC9E467047F8B500BFF8BC08BCDF
:10DA50009E467047002C0020FC2C00201C1D1F1E21
:10DA60000000000000509D00143300201D00000045
:10DA70001C0000001E0000001F000000000000004D
:10DA80000000000000009D00060000001D000000D6
:10DA90001C0000001E0000001F000000000000002D
:10DAA0000000000000009D000600000001000007CB
:10DAB000010000000200000003000000040000005C
:10DAC00005000000080000000A0000001027000008
:10DAD00088130000A60E0000C409000053070000D0
:10DAE000E2040000E8030000009000400004000091
:0CDAF00000000006000000000000000024
:08DAFC0044C9FF7F0100000096
:10DB04000000000000000000000000000000000011
:10DB14000000000000000000000000000000000001
:10DB240000000000000000000000000000000000F1
:10DB340000000000000000000000000000000000E1
:10DB440000000000000000000000000000000000D1
:10DB540000000000000000000000000000000000C1
:10DB6400F9BE070069BF07000090D00325A4070091
:04DB740001A4070001
:020000020000FC
:020000041000EA
:0410140000A0070031
:0410180000E00700ED
:040000037000D9E9C7
:00000001FF
